{
  "contractName": "Prescription",
  "abi": [
    {
      "inputs": [
        {
          "internalType": "address",
          "name": "_userManagementAddress",
          "type": "address"
        },
        {
          "internalType": "address",
          "name": "_consultationAddress",
          "type": "address"
        }
      ],
      "stateMutability": "nonpayable",
      "type": "constructor"
    },
    {
      "anonymous": false,
      "inputs": [
        {
          "indexed": true,
          "internalType": "uint256",
          "name": "prescriptionId",
          "type": "uint256"
        },
        {
          "indexed": true,
          "internalType": "uint256",
          "name": "appointmentId",
          "type": "uint256"
        },
        {
          "indexed": true,
          "internalType": "address",
          "name": "patient",
          "type": "address"
        },
        {
          "indexed": false,
          "internalType": "address",
          "name": "doctor",
          "type": "address"
        }
      ],
      "name": "PrescriptionIssued",
      "type": "event"
    },
    {
      "inputs": [
        {
          "internalType": "address",
          "name": "",
          "type": "address"
        },
        {
          "internalType": "uint256",
          "name": "",
          "type": "uint256"
        }
      ],
      "name": "doctorPrescriptions",
      "outputs": [
        {
          "internalType": "uint256",
          "name": "",
          "type": "uint256"
        }
      ],
      "stateMutability": "view",
      "type": "function",
      "constant": true
    },
    {
      "inputs": [
        {
          "internalType": "address",
          "name": "",
          "type": "address"
        },
        {
          "internalType": "uint256",
          "name": "",
          "type": "uint256"
        }
      ],
      "name": "patientPrescriptions",
      "outputs": [
        {
          "internalType": "uint256",
          "name": "",
          "type": "uint256"
        }
      ],
      "stateMutability": "view",
      "type": "function",
      "constant": true
    },
    {
      "inputs": [
        {
          "internalType": "uint256",
          "name": "",
          "type": "uint256"
        }
      ],
      "name": "prescriptions",
      "outputs": [
        {
          "internalType": "uint256",
          "name": "id",
          "type": "uint256"
        },
        {
          "internalType": "uint256",
          "name": "appointmentId",
          "type": "uint256"
        },
        {
          "internalType": "address",
          "name": "patient",
          "type": "address"
        },
        {
          "internalType": "address",
          "name": "doctor",
          "type": "address"
        },
        {
          "internalType": "string",
          "name": "medicationDetails",
          "type": "string"
        },
        {
          "internalType": "string",
          "name": "dosage",
          "type": "string"
        },
        {
          "internalType": "string",
          "name": "frequency",
          "type": "string"
        },
        {
          "internalType": "string",
          "name": "duration",
          "type": "string"
        },
        {
          "internalType": "string",
          "name": "additionalNotes",
          "type": "string"
        },
        {
          "internalType": "uint256",
          "name": "issueDate",
          "type": "uint256"
        },
        {
          "internalType": "uint256",
          "name": "expiryDate",
          "type": "uint256"
        },
        {
          "internalType": "bytes",
          "name": "signature",
          "type": "bytes"
        },
        {
          "internalType": "bool",
          "name": "exists",
          "type": "bool"
        }
      ],
      "stateMutability": "view",
      "type": "function",
      "constant": true
    },
    {
      "inputs": [
        {
          "internalType": "uint256",
          "name": "_appointmentId",
          "type": "uint256"
        },
        {
          "internalType": "string",
          "name": "_medicationDetails",
          "type": "string"
        },
        {
          "internalType": "string",
          "name": "_dosage",
          "type": "string"
        },
        {
          "internalType": "string",
          "name": "_frequency",
          "type": "string"
        },
        {
          "internalType": "string",
          "name": "_duration",
          "type": "string"
        },
        {
          "internalType": "string",
          "name": "_additionalNotes",
          "type": "string"
        },
        {
          "internalType": "uint256",
          "name": "_expiryDate",
          "type": "uint256"
        },
        {
          "internalType": "bytes",
          "name": "_signature",
          "type": "bytes"
        }
      ],
      "name": "issuePrescription",
      "outputs": [
        {
          "internalType": "uint256",
          "name": "",
          "type": "uint256"
        }
      ],
      "stateMutability": "nonpayable",
      "type": "function"
    },
    {
      "inputs": [
        {
          "internalType": "uint256",
          "name": "_prescriptionId",
          "type": "uint256"
        },
        {
          "internalType": "bytes",
          "name": "_signature",
          "type": "bytes"
        }
      ],
      "name": "verifyPrescription",
      "outputs": [
        {
          "internalType": "bool",
          "name": "",
          "type": "bool"
        }
      ],
      "stateMutability": "view",
      "type": "function",
      "constant": true
    },
    {
      "inputs": [
        {
          "internalType": "uint256",
          "name": "_prescriptionId",
          "type": "uint256"
        }
      ],
      "name": "getPrescriptionDetails",
      "outputs": [
        {
          "internalType": "uint256",
          "name": "appointmentId",
          "type": "uint256"
        },
        {
          "internalType": "address",
          "name": "patient",
          "type": "address"
        },
        {
          "internalType": "address",
          "name": "doctor",
          "type": "address"
        },
        {
          "internalType": "string",
          "name": "medicationDetails",
          "type": "string"
        },
        {
          "internalType": "string",
          "name": "dosage",
          "type": "string"
        },
        {
          "internalType": "string",
          "name": "frequency",
          "type": "string"
        },
        {
          "internalType": "string",
          "name": "duration",
          "type": "string"
        },
        {
          "internalType": "string",
          "name": "additionalNotes",
          "type": "string"
        },
        {
          "internalType": "uint256",
          "name": "issueDate",
          "type": "uint256"
        },
        {
          "internalType": "uint256",
          "name": "expiryDate",
          "type": "uint256"
        },
        {
          "internalType": "bytes",
          "name": "signature",
          "type": "bytes"
        }
      ],
      "stateMutability": "view",
      "type": "function",
      "constant": true
    },
    {
      "inputs": [],
      "name": "getDoctorPrescriptions",
      "outputs": [
        {
          "internalType": "uint256[]",
          "name": "",
          "type": "uint256[]"
        }
      ],
      "stateMutability": "view",
      "type": "function",
      "constant": true
    },
    {
      "inputs": [],
      "name": "getPatientPrescriptions",
      "outputs": [
        {
          "internalType": "uint256[]",
          "name": "",
          "type": "uint256[]"
        }
      ],
      "stateMutability": "view",
      "type": "function",
      "constant": true
    },
    {
      "inputs": [
        {
          "internalType": "uint256",
          "name": "_prescriptionId",
          "type": "uint256"
        }
      ],
      "name": "isPrescriptionValid",
      "outputs": [
        {
          "internalType": "bool",
          "name": "",
          "type": "bool"
        }
      ],
      "stateMutability": "view",
      "type": "function",
      "constant": true
    }
  ],
  "bytecode": "0x60806040523480156200001157600080fd5b5060405162001abd38038062001abd833981016040819052620000349162000089565b600080546001600160a01b039384166001600160a01b03199182161782556001805493909416921691909117909155600255620000c1565b80516001600160a01b03811681146200008457600080fd5b919050565b600080604083850312156200009d57600080fd5b620000a8836200006c565b9150620000b8602084016200006c565b90509250929050565b6119ec80620000d16000396000f3fe608060405234801561001057600080fd5b50600436106100935760003560e01c8063733ba56d11610066578063733ba56d1461012d57806383bd90d414610140578063a5564ec014610153578063adb2722c1461015b578063fb294e0d1461017e57600080fd5b806331dfc91b1461009857806342efd7d0146100cd5780635e189509146100e25780636559dfc71461010c575b600080fd5b6100ab6100a63660046111b0565b610191565b6040516100c49d9c9b9a99989796959493929190611219565b60405180910390f35b6100d5610534565b6040516100c491906112f5565b6100f56100f03660046111b0565b610625565b6040516100c49b9a99989796959493929190611339565b61011f61011a3660046113f5565b610ad9565b6040519081526020016100c4565b61011f61013b3660046113f5565b610b0a565b61011f61014e3660046114e6565b610b26565b6100d5610fe3565b61016e6101693660046111b0565b611111565b60405190151581526020016100c4565b61016e61018c3660046115f0565b611150565b600360208190526000918252604090912080546001820154600283015493830154600484018054939592946001600160a01b039384169493909216926101d690611637565b80601f016020809104026020016040519081016040528092919081815260200182805461020290611637565b801561024f5780601f106102245761010080835404028352916020019161024f565b820191906000526020600020905b81548152906001019060200180831161023257829003601f168201915b50505050509080600501805461026490611637565b80601f016020809104026020016040519081016040528092919081815260200182805461029090611637565b80156102dd5780601f106102b2576101008083540402835291602001916102dd565b820191906000526020600020905b8154815290600101906020018083116102c057829003601f168201915b5050505050908060060180546102f290611637565b80601f016020809104026020016040519081016040528092919081815260200182805461031e90611637565b801561036b5780601f106103405761010080835404028352916020019161036b565b820191906000526020600020905b81548152906001019060200180831161034e57829003601f168201915b50505050509080600701805461038090611637565b80601f01602080910402602001604051908101604052809291908181526020018280546103ac90611637565b80156103f95780601f106103ce576101008083540402835291602001916103f9565b820191906000526020600020905b8154815290600101906020018083116103dc57829003601f168201915b50505050509080600801805461040e90611637565b80601f016020809104026020016040519081016040528092919081815260200182805461043a90611637565b80156104875780601f1061045c57610100808354040283529160200191610487565b820191906000526020600020905b81548152906001019060200180831161046a57829003601f168201915b50505050509080600901549080600a01549080600b0180546104a890611637565b80601f01602080910402602001604051908101604052809291908181526020018280546104d490611637565b80156105215780601f106104f657610100808354040283529160200191610521565b820191906000526020600020905b81548152906001019060200180831161050457829003601f168201915b505050600c909301549192505060ff168d565b600054604051634cb2206360e11b81523360048201526060916001600160a01b03169063996440c690602401602060405180830381865afa15801561057d573d6000803e3d6000fd5b505050506040513d601f19601f820116820180604052508101906105a19190611671565b6105c65760405162461bcd60e51b81526004016105bd9061169a565b60405180910390fd5b336000908152600460209081526040918290208054835181840281018401909452808452909183018282801561061b57602002820191906000526020600020905b815481526020019060010190808311610607575b5050505050905090565b6000818152600360205260408120600201548190819060609081908190819081908690819083908c906001600160a01b031633148061067e5750600081815260036020819052604090912001546001600160a01b031633145b6106e15760405162461bcd60e51b815260206004820152602e60248201527f4f6e6c79207061727469636970616e74732063616e206163636573732074686960448201526d3990383932b9b1b934b83a34b7b760911b60648201526084016105bd565b60008d8152600360205260409020600c81015460ff166107135760405162461bcd60e51b81526004016105bd906116e6565b80600101548160020160009054906101000a90046001600160a01b03168260030160009054906101000a90046001600160a01b03168360040184600501856006018660070187600801886009015489600a01548a600b0187805461077690611637565b80601f01602080910402602001604051908101604052809291908181526020018280546107a290611637565b80156107ef5780601f106107c4576101008083540402835291602001916107ef565b820191906000526020600020905b8154815290600101906020018083116107d257829003601f168201915b5050505050975086805461080290611637565b80601f016020809104026020016040519081016040528092919081815260200182805461082e90611637565b801561087b5780601f106108505761010080835404028352916020019161087b565b820191906000526020600020905b81548152906001019060200180831161085e57829003601f168201915b5050505050965085805461088e90611637565b80601f01602080910402602001604051908101604052809291908181526020018280546108ba90611637565b80156109075780601f106108dc57610100808354040283529160200191610907565b820191906000526020600020905b8154815290600101906020018083116108ea57829003601f168201915b5050505050955084805461091a90611637565b80601f016020809104026020016040519081016040528092919081815260200182805461094690611637565b80156109935780601f1061096857610100808354040283529160200191610993565b820191906000526020600020905b81548152906001019060200180831161097657829003601f168201915b505050505094508380546109a690611637565b80601f01602080910402602001604051908101604052809291908181526020018280546109d290611637565b8015610a1f5780601f106109f457610100808354040283529160200191610a1f565b820191906000526020600020905b815481529060010190602001808311610a0257829003601f168201915b50505050509350808054610a3290611637565b80601f0160208091040260200160405190810160405280929190818152602001828054610a5e90611637565b8015610aab5780601f10610a8057610100808354040283529160200191610aab565b820191906000526020600020905b815481529060010190602001808311610a8e57829003601f168201915b505050505090509c509c509c509c509c509c509c509c509c509c509c50505091939597999b90929496989a50565b60046020528160005260406000208181548110610af557600080fd5b90600052602060002001600091509150505481565b60056020528160005260406000208181548110610af557600080fd5b60008054604051634cb2206360e11b81523360048201526001600160a01b039091169063996440c690602401602060405180830381865afa158015610b6f573d6000803e3d6000fd5b505050506040513d601f19601f82011682018060405250810190610b939190611671565b610baf5760405162461bcd60e51b81526004016105bd9061169a565b60015460405163274894d760e01b8152600481018b9052600091829182916001600160a01b03169063274894d790602401600060405180830381865afa158015610bfd573d6000803e3d6000fd5b505050506040513d6000823e601f3d908101601f19168201604052610c259190810190611731565b955050505092509250336001600160a01b0316826001600160a01b031614610cc45760405162461bcd60e51b815260206004820152604660248201527f4f6e6c792074686520646f63746f722077686f20636f6e64756374656420746860448201527f65206170706f696e746d656e742063616e20697373756520612070726573637260648201526534b83a34b7b760d11b608482015260a4016105bd565b6001816002811115610cd857610cd86117f4565b14610d435760405162461bcd60e51b815260206004820152603560248201527f4170706f696e746d656e74206d75737420626520636f6d706c6574656420746f6044820152741034b9b9bab2903090383932b9b1b934b83a34b7b760591b60648201526084016105bd565b428611610d9c5760405162461bcd60e51b815260206004820152602160248201527f4578706972792064617465206d75737420626520696e207468652066757475726044820152606560f81b60648201526084016105bd565b6002805460009182610dad8361180a565b919050559050604051806101a001604052808281526020018e8152602001856001600160a01b03168152602001336001600160a01b031681526020018d81526020018c81526020018b81526020018a81526020018981526020014281526020018881526020018781526020016001151581525060036000838152602001908152602001600020600082015181600001556020820151816001015560408201518160020160006101000a8154816001600160a01b0302191690836001600160a01b0316021790555060608201518160030160006101000a8154816001600160a01b0302191690836001600160a01b031602179055506080820151816004019081610eb69190611880565b5060a08201516005820190610ecb9082611880565b5060c08201516006820190610ee09082611880565b5060e08201516007820190610ef59082611880565b506101008201516008820190610f0b9082611880565b506101208201516009820155610140820151600a820155610160820151600b820190610f379082611880565b506101809190910151600c909101805460ff1916911515919091179055336000818152600460209081526040808320805460018181018355918552838520018690556001600160a01b0389168085526005845282852080549283018155855293839020018590555192835290918f9184917f156b6b9593e7221da507bc6f81946d3243d759fa403610803d87c1f4b9ed7783910160405180910390a49c9b505050505050505050505050565b600054604051638f9c79ed60e01b81523360048201526060916001600160a01b031690638f9c79ed90602401602060405180830381865afa15801561102c573d6000803e3d6000fd5b505050506040513d601f19601f820116820180604052508101906110509190611671565b6110b45760405162461bcd60e51b815260206004820152602f60248201527f4f6e6c7920726567697374657265642070617469656e74732063616e2063616c60448201526e36103a3434b990333ab731ba34b7b760891b60648201526084016105bd565b336000908152600560209081526040918290208054835181840281018401909452808452909183018282801561061b5760200282019190600052602060002090815481526020019060010190808311610607575050505050905090565b6000818152600360205260408120600c81015460ff166111435760405162461bcd60e51b81526004016105bd906116e6565b600a015442111592915050565b6000828152600360205260408120600c81015460ff166111825760405162461bcd60e51b81526004016105bd906116e6565b600081600b016040516111959190611940565b60405190819003902084516020860120149250505092915050565b6000602082840312156111c257600080fd5b5035919050565b60005b838110156111e45781810151838201526020016111cc565b50506000910152565b600081518084526112058160208601602086016111c9565b601f01601f19169290920160200192915050565b60006101a08f83528e602084015261123c604084018f6001600160a01b03169052565b6001600160a01b038d16606084015280608084015261125d8184018d6111ed565b905082810360a0840152611271818c6111ed565b905082810360c0840152611285818b6111ed565b905082810360e0840152611299818a6111ed565b90508281036101008401526112ae81896111ed565b905086610120840152856101408401528281036101608401526112d181866111ed565b9150506112e361018083018415159052565b9e9d5050505050505050505050505050565b6020808252825182820181905260009190848201906040850190845b8181101561132d57835183529284019291840191600101611311565b50909695505050505050565b8b81526001600160a01b038b811660208301528a166040820152600061016080606084015261136a8184018c6111ed565b9050828103608084015261137e818b6111ed565b905082810360a0840152611392818a6111ed565b905082810360c08401526113a681896111ed565b905082810360e08401526113ba81886111ed565b905085610100840152846101208401528281036101408401526112e381856111ed565b6001600160a01b03811681146113f257600080fd5b50565b6000806040838503121561140857600080fd5b8235611413816113dd565b946020939093013593505050565b634e487b7160e01b600052604160045260246000fd5b604051601f8201601f1916810167ffffffffffffffff8111828210171561146057611460611421565b604052919050565b600067ffffffffffffffff82111561148257611482611421565b50601f01601f191660200190565b600082601f8301126114a157600080fd5b81356114b46114af82611468565b611437565b8181528460208386010111156114c957600080fd5b816020850160208301376000918101602001919091529392505050565b600080600080600080600080610100898b03121561150357600080fd5b88359750602089013567ffffffffffffffff8082111561152257600080fd5b61152e8c838d01611490565b985060408b013591508082111561154457600080fd5b6115508c838d01611490565b975060608b013591508082111561156657600080fd5b6115728c838d01611490565b965060808b013591508082111561158857600080fd5b6115948c838d01611490565b955060a08b01359150808211156115aa57600080fd5b6115b68c838d01611490565b945060c08b0135935060e08b01359150808211156115d357600080fd5b506115e08b828c01611490565b9150509295985092959890939650565b6000806040838503121561160357600080fd5b82359150602083013567ffffffffffffffff81111561162157600080fd5b61162d85828601611490565b9150509250929050565b600181811c9082168061164b57607f821691505b60208210810361166b57634e487b7160e01b600052602260045260246000fd5b50919050565b60006020828403121561168357600080fd5b8151801515811461169357600080fd5b9392505050565b6020808252602c908201527f4f6e6c7920766572696669656420646f63746f72732063616e2063616c6c207460408201526b3434b990333ab731ba34b7b760a11b606082015260800190565b6020808252601b908201527f507265736372697074696f6e20646f6573206e6f742065786973740000000000604082015260600190565b80516003811061172c57600080fd5b919050565b60008060008060008060c0878903121561174a57600080fd5b8651611755816113dd565b6020880151909650611766816113dd565b809550506040870151935060608701519250608087015167ffffffffffffffff81111561179257600080fd5b8701601f810189136117a357600080fd5b80516117b16114af82611468565b8181528a60208385010111156117c657600080fd5b6117d78260208301602086016111c9565b93506117e891505060a0880161171d565b90509295509295509295565b634e487b7160e01b600052602160045260246000fd5b60006001820161182a57634e487b7160e01b600052601160045260246000fd5b5060010190565b601f82111561187b57600081815260208120601f850160051c810160208610156118585750805b601f850160051c820191505b8181101561187757828155600101611864565b5050505b505050565b815167ffffffffffffffff81111561189a5761189a611421565b6118ae816118a88454611637565b84611831565b602080601f8311600181146118e357600084156118cb5750858301515b600019600386901b1c1916600185901b178555611877565b600085815260208120601f198616915b82811015611912578886015182559484019460019091019084016118f3565b50858210156119305787850151600019600388901b60f8161c191681555b5050505050600190811b01905550565b600080835461194e81611637565b60018281168015611966576001811461197b576119aa565b60ff19841687528215158302870194506119aa565b8760005260208060002060005b858110156119a15781548a820152908401908201611988565b50505082870194505b5092969550505050505056fea2646970667358221220253ec030a7e2235b6a4f6a40642b9a5efcad3e4d2eb4ad3b15a7ea50a0ba6aa364736f6c63430008110033",
  "immutableReferences": {},
  "source": "// SPDX-License-Identifier: MIT\r\npragma solidity ^0.8.0;\r\n\r\nimport \"./UserManagement.sol\";\r\nimport \"./Consultation.sol\";\r\n\r\ncontract Prescription {\r\n    // Structs\r\n    struct PrescriptionData {\r\n        uint256 id;\r\n        uint256 appointmentId;\r\n        address patient;\r\n        address doctor;\r\n        string medicationDetails;\r\n        string dosage;\r\n        string frequency;\r\n        string duration;\r\n        string additionalNotes;\r\n        uint256 issueDate;\r\n        uint256 expiryDate;\r\n        bytes signature;\r\n        bool exists;\r\n    }\r\n    \r\n    // State variables\r\n    UserManagement private userManagement;\r\n    Consultation private consultation;\r\n    uint256 private prescriptionCounter;\r\n    \r\n    // Mappings\r\n    mapping(uint256 => PrescriptionData) public prescriptions;\r\n    mapping(address => uint256[]) public doctorPrescriptions;\r\n    mapping(address => uint256[]) public patientPrescriptions;\r\n    \r\n    // Events\r\n    event PrescriptionIssued(\r\n        uint256 indexed prescriptionId,\r\n        uint256 indexed appointmentId,\r\n        address indexed patient,\r\n        address doctor\r\n    );\r\n    \r\n    // Modifiers\r\n    modifier onlyDoctor() {\r\n        require(userManagement.isDoctor(msg.sender), \"Only verified doctors can call this function\");\r\n        _;\r\n    }\r\n    \r\n    modifier onlyParticipant(uint256 _prescriptionId) {\r\n        require(\r\n            prescriptions[_prescriptionId].patient == msg.sender || \r\n            prescriptions[_prescriptionId].doctor == msg.sender,\r\n            \"Only participants can access this prescription\"\r\n        );\r\n        _;\r\n    }\r\n    \r\n    constructor(address _userManagementAddress, address _consultationAddress) {\r\n        userManagement = UserManagement(_userManagementAddress);\r\n        consultation = Consultation(_consultationAddress);\r\n        prescriptionCounter = 0;\r\n    }\r\n    \r\n    // Issue a new prescription (doctor only)\r\n    function issuePrescription(\r\n        uint256 _appointmentId,\r\n        string memory _medicationDetails,\r\n        string memory _dosage,\r\n        string memory _frequency,\r\n        string memory _duration,\r\n        string memory _additionalNotes,\r\n        uint256 _expiryDate,\r\n        bytes memory _signature\r\n    ) external onlyDoctor returns (uint256) {\r\n        // Get appointment details\r\n        (address patient, address doctor, , , , Consultation.AppointmentStatus status) = \r\n            consultation.getAppointmentDetails(_appointmentId);\r\n        \r\n        require(doctor == msg.sender, \"Only the doctor who conducted the appointment can issue a prescription\");\r\n        require(status == Consultation.AppointmentStatus.Completed, \"Appointment must be completed to issue a prescription\");\r\n        require(_expiryDate > block.timestamp, \"Expiry date must be in the future\");\r\n        \r\n        uint256 prescriptionId = prescriptionCounter++;\r\n        \r\n        prescriptions[prescriptionId] = PrescriptionData({\r\n            id: prescriptionId,\r\n            appointmentId: _appointmentId,\r\n            patient: patient,\r\n            doctor: msg.sender,\r\n            medicationDetails: _medicationDetails,\r\n            dosage: _dosage,\r\n            frequency: _frequency,\r\n            duration: _duration,\r\n            additionalNotes: _additionalNotes,\r\n            issueDate: block.timestamp,\r\n            expiryDate: _expiryDate,\r\n            signature: _signature,\r\n            exists: true\r\n        });\r\n        \r\n        doctorPrescriptions[msg.sender].push(prescriptionId);\r\n        patientPrescriptions[patient].push(prescriptionId);\r\n        \r\n        emit PrescriptionIssued(prescriptionId, _appointmentId, patient, msg.sender);\r\n        \r\n        return prescriptionId;\r\n    }\r\n    \r\n    // Verify prescription signature\r\n    function verifyPrescription(uint256 _prescriptionId, bytes memory _signature) external view returns (bool) {\r\n        PrescriptionData storage prescription = prescriptions[_prescriptionId];\r\n        require(prescription.exists, \"Prescription does not exist\");\r\n        \r\n        // Compare the signatures\r\n        bytes32 signatureHash = keccak256(prescription.signature);\r\n        bytes32 providedSignatureHash = keccak256(_signature);\r\n        \r\n        return signatureHash == providedSignatureHash;\r\n    }\r\n    \r\n    // Get prescription details\r\n    function getPrescriptionDetails(uint256 _prescriptionId) \r\n        external \r\n        view \r\n        onlyParticipant(_prescriptionId) \r\n        returns (\r\n            uint256 appointmentId,\r\n            address patient,\r\n            address doctor,\r\n            string memory medicationDetails,\r\n            string memory dosage,\r\n            string memory frequency,\r\n            string memory duration,\r\n            string memory additionalNotes,\r\n            uint256 issueDate,\r\n            uint256 expiryDate,\r\n            bytes memory signature\r\n        ) \r\n    {\r\n        PrescriptionData storage prescription = prescriptions[_prescriptionId];\r\n        require(prescription.exists, \"Prescription does not exist\");\r\n        \r\n        return (\r\n            prescription.appointmentId,\r\n            prescription.patient,\r\n            prescription.doctor,\r\n            prescription.medicationDetails,\r\n            prescription.dosage,\r\n            prescription.frequency,\r\n            prescription.duration,\r\n            prescription.additionalNotes,\r\n            prescription.issueDate,\r\n            prescription.expiryDate,\r\n            prescription.signature\r\n        );\r\n    }\r\n    \r\n    // Get doctor's issued prescriptions\r\n    function getDoctorPrescriptions() external view onlyDoctor returns (uint256[] memory) {\r\n        return doctorPrescriptions[msg.sender];\r\n    }\r\n    \r\n    // Get patient's prescriptions\r\n    function getPatientPrescriptions() external view returns (uint256[] memory) {\r\n        require(userManagement.isPatient(msg.sender), \"Only registered patients can call this function\");\r\n        return patientPrescriptions[msg.sender];\r\n    }\r\n    \r\n    // Check if a prescription is valid (not expired)\r\n    function isPrescriptionValid(uint256 _prescriptionId) external view returns (bool) {\r\n        PrescriptionData storage prescription = prescriptions[_prescriptionId];\r\n        require(prescription.exists, \"Prescription does not exist\");\r\n        \r\n        return block.timestamp <= prescription.expiryDate;\r\n    }\r\n}",
  "sourcePath": "C:\\Users\\Deepesh D Haldankar\\Downloads\\Telemedicine-Blockchain\\TeleMedicine-Ethereum\\contracts\\Prescription.sol",
  "compiler": {
    "name": "solc",
    "version": "0.8.17+commit.8df45f5f.Emscripten.clang"
  },
  "schemaVersion": "3.4.16",
  "updatedAt": "2025-04-23T09:31:04.571Z",
  "networkType": "ethereum",
  "devdoc": {
    "kind": "dev",
    "methods": {},
    "version": 1
  },
  "userdoc": {
    "kind": "user",
    "methods": {},
    "version": 1
  }
}